{
  "contractName": "Voooooooting",
  "abi": [
    {
      "inputs": [],
      "payable": false,
      "stateMutability": "nonpayable",
      "type": "constructor"
    },
    {
      "constant": false,
      "inputs": [
        {
          "internalType": "uint256",
          "name": "i",
          "type": "uint256"
        }
      ],
      "name": "BJP",
      "outputs": [],
      "payable": false,
      "stateMutability": "nonpayable",
      "type": "function"
    },
    {
      "constant": false,
      "inputs": [
        {
          "internalType": "uint256",
          "name": "i",
          "type": "uint256"
        }
      ],
      "name": "Congress",
      "outputs": [],
      "payable": false,
      "stateMutability": "nonpayable",
      "type": "function"
    },
    {
      "constant": false,
      "inputs": [
        {
          "internalType": "uint256",
          "name": "i",
          "type": "uint256"
        }
      ],
      "name": "AAP",
      "outputs": [],
      "payable": false,
      "stateMutability": "nonpayable",
      "type": "function"
    },
    {
      "constant": false,
      "inputs": [
        {
          "internalType": "uint256",
          "name": "i",
          "type": "uint256"
        }
      ],
      "name": "NOTA",
      "outputs": [],
      "payable": false,
      "stateMutability": "nonpayable",
      "type": "function"
    },
    {
      "constant": true,
      "inputs": [],
      "name": "VotesOfBJP",
      "outputs": [
        {
          "internalType": "uint256",
          "name": "",
          "type": "uint256"
        }
      ],
      "payable": false,
      "stateMutability": "view",
      "type": "function"
    },
    {
      "constant": true,
      "inputs": [],
      "name": "VotesOfCongress",
      "outputs": [
        {
          "internalType": "uint256",
          "name": "",
          "type": "uint256"
        }
      ],
      "payable": false,
      "stateMutability": "view",
      "type": "function"
    },
    {
      "constant": true,
      "inputs": [],
      "name": "VotesOfAAP",
      "outputs": [
        {
          "internalType": "uint256",
          "name": "",
          "type": "uint256"
        }
      ],
      "payable": false,
      "stateMutability": "view",
      "type": "function"
    },
    {
      "constant": true,
      "inputs": [],
      "name": "VotesOfNOTA",
      "outputs": [
        {
          "internalType": "uint256",
          "name": "",
          "type": "uint256"
        }
      ],
      "payable": false,
      "stateMutability": "view",
      "type": "function"
    },
    {
      "constant": true,
      "inputs": [],
      "name": "Declaration",
      "outputs": [
        {
          "internalType": "uint256",
          "name": "",
          "type": "uint256"
        }
      ],
      "payable": false,
      "stateMutability": "view",
      "type": "function"
    }
  ],
  "bytecode": "0x608060405260008055600060015560006002556000600355600060055534801561002857600080fd5b5060008090505b60148110156100c7576103e881016006826014811061004a57fe5b600302016001018190555060006006826014811061006457fe5b6003020160000160006101000a81548160ff021916908315150217905550604051806020016040528060008152506006826014811061009f57fe5b6003020160020190805190602001906100b99291906100d4565b50808060010191505061002f565b5042600481905550610179565b828054600181600116156101000203166002900490600052602060002090601f016020900481019282601f1061011557805160ff1916838001178555610143565b82800160010185558215610143579182015b82811115610142578251825591602001919060010190610127565b5b5090506101509190610154565b5090565b61017691905b8082111561017257600081600090555060010161015a565b5090565b90565b6106e3806101886000396000f3fe608060405234801561001057600080fd5b50600436106100935760003560e01c8063b8a134b811610066578063b8a134b814610130578063c0ad73e61461014e578063d7e4f7541461017c578063eb6e8f5e1461019a578063f77985bb146101b857610093565b80634415800e146100985780634944d88b146100c65780635c4314b9146100f4578063a076e22314610112575b600080fd5b6100c4600480360360208110156100ae57600080fd5b81019080803590602001909291905050506101e6565b005b6100f2600480360360208110156100dc57600080fd5b81019080803590602001909291905050506102cc565b005b6100fc6103b2565b6040518082815260200191505060405180910390f35b61011a6103ce565b6040518082815260200191505060405180910390f35b6101386103ea565b6040518082815260200191505060405180910390f35b61017a6004803603602081101561016457600080fd5b8101908080359060200190929190505050610406565b005b6101846104eb565b6040518082815260200191505060405180910390f35b6101a2610507565b6040518082815260200191505060405180910390f35b6101e4600480360360208110156101ce57600080fd5b8101908080359060200190929190505050610523565b005b8060001515600682601481106101f857fe5b6003020160000160009054906101000a900460ff1615151461021957600080fd5b60026000815480929190600101919050555060056000815480929190600101919050555060016006836014811061024c57fe5b6003020160000160006101000a81548160ff0219169083151502179055506040518060400160405280600381526020017f4141500000000000000000000000000000000000000000000000000000000000815250600683601481106102ad57fe5b6003020160020190805190602001906102c7929190610609565b505050565b8060001515600682601481106102de57fe5b6003020160000160009054906101000a900460ff161515146102ff57600080fd5b60016000815480929190600101919050555060056000815480929190600101919050555060016006836014811061033257fe5b6003020160000160006101000a81548160ff0219169083151502179055506040518060400160405280600881526020017f436f6e67726573730000000000000000000000000000000000000000000000008152506006836014811061039357fe5b6003020160020190805190602001906103ad929190610609565b505050565b6000601e600454014210156103c657600080fd5b600254905090565b6000601e600454014210156103e257600080fd5b600554905090565b6000601e600454014210156103fe57600080fd5b600354905090565b80600015156006826014811061041857fe5b6003020160000160009054906101000a900460ff1615151461043957600080fd5b600080815480929190600101919050555060056000815480929190600101919050555060016006836014811061046b57fe5b6003020160000160006101000a81548160ff0219169083151502179055506040518060400160405280600381526020017f424a500000000000000000000000000000000000000000000000000000000000815250600683601481106104cc57fe5b6003020160020190805190602001906104e6929190610609565b505050565b6000601e600454014210156104ff57600080fd5b600054905090565b6000601e6004540142101561051b57600080fd5b600154905090565b80600015156006826014811061053557fe5b6003020160000160009054906101000a900460ff1615151461055657600080fd5b60036000815480929190600101919050555060056000815480929190600101919050555060016006836014811061058957fe5b6003020160000160006101000a81548160ff0219169083151502179055506040518060400160405280601181526020017f4e6f6e65206f66207468652061626f7665000000000000000000000000000000815250600683601481106105ea57fe5b600302016002019080519060200190610604929190610609565b505050565b828054600181600116156101000203166002900490600052602060002090601f016020900481019282601f1061064a57805160ff1916838001178555610678565b82800160010185558215610678579182015b8281111561067757825182559160200191906001019061065c565b5b5090506106859190610689565b5090565b6106ab91905b808211156106a757600081600090555060010161068f565b5090565b9056fea265627a7a72315820162794d52afd560b03ae1ddfccdcf0869c5aa653fcab9257c115e71fc6d7ef2c64736f6c63430005110032",
  "source": "// SPDX-License-Identifier: MIT\r\n\r\n//Solidity compiler version\r\npragma solidity >= 0.5.0;\r\n\r\n//Here the contract will start\r\ncontract Voooooooting{\r\n    \r\n\r\n    //Struct function for the voter\r\n    struct Voter{\r\n        bool isVote; //checker variable to determine whether the voter has voted before\r\n        uint id; //ID of the voter        \r\n        string towhom; //to whom the voter has voted\r\n    }\r\n\r\n    //Declaring and Initialising the variables for votes\r\n    uint bjp = 0;\r\n    uint congress = 0;\r\n    uint aap = 0;\r\n    uint nota = 0;\r\n\r\n    //Initializing the time variable to the time of deployment\r\n    uint time_inital;\r\n    //Setting total count of the variable to be zero\r\n    uint counter = 0;\r\n\r\n    //Declaring the static array to initialize the number of the vote\r\n    Voter[20] voters;\r\n\r\n    //Initializing the ids of the voter via construction during the deployment\r\n    constructor() public {\r\n        for (uint i = 0;i < 20;i++){\r\n            voters[i].id = i+1000;\r\n            voters[i].isVote = false;\r\n            voters[i].towhom = \"\";\r\n        }\r\n        time_inital = block.timestamp;\r\n    }\r\n\r\n    //Modifiers\r\n\r\n    //Modifier used for comparing the current time and the\r\n    //time of the declaration of the result\r\n    modifier Time(){\r\n        require(block.timestamp >= time_inital + 30 seconds);\r\n        _;\r\n    }\r\n    \r\n    //Modifier used for checking whether the voter is\r\n    //giving his vote again\r\n    modifier IsVote(uint i) {\r\n        require(voters[i].isVote == false);\r\n        _;\r\n    }\r\n\r\n    //Functions\r\n\r\n    //Function to increase the vote count of BJP\r\n    function BJP(uint i) public IsVote(i){\r\n        bjp++; //bjp counter will increases by one\r\n        counter++; //Total count will increase by one\r\n        voters[i].isVote = true; //Made the voter ineligible to vote\r\n        voters[i].towhom = \"BJP\"; //Keeps the record of the voter list to whom the voter has voted\r\n    }\r\n\r\n    function  Congress(uint i) public IsVote(i){\r\n        congress++;\r\n        counter++; //Total count will increase by one\r\n        voters[i].isVote = true; //Made the voter ineligible to vote\r\n        voters[i].towhom = \"Congress\"; //Keeps the record of the voter list to whom the voter has voted       \r\n    }\r\n\r\n    function AAP(uint i) public IsVote(i){\r\n        aap++;\r\n        counter++; //Total count will increase by one\r\n        voters[i].isVote = true; //Made the voter ineligible to vote\r\n        voters[i].towhom = \"AAP\"; //Keeps the record of the voter list to whom the voter has voted    \r\n    }\r\n\r\n    function NOTA(uint i) public IsVote(i){\r\n        nota++;\r\n        counter++; //Total count will increase by one\r\n        voters[i].isVote = true; //Made the voter ineligible to vote\r\n        voters[i].towhom = \"None of the above\"; //Keeps the record of the voter list to whom the voter has voted      \r\n    }\r\n\r\n    //This function will return the votes of BJP\r\n    function VotesOfBJP() external view Time() returns(uint) {\r\n        return bjp;\r\n    }\r\n\r\n    //This function will return the votes of Congress\r\n    function VotesOfCongress() external view Time() returns(uint) {\r\n        return congress;\r\n    }\r\n\r\n    //This function will return the votes of AAP\r\n    function VotesOfAAP() external view Time() returns(uint) {\r\n        return aap;\r\n    }\r\n\r\n    //This function will return the votes of None of the above\r\n    function VotesOfNOTA() external view Time() returns(uint) {\r\n        return nota;\r\n    }\r\n\r\n    //This function finally declares the result of the all the candidates\r\n    //registered to be voted and the total voting of the elections\r\n    function Declaration() external view Time() returns(uint){\r\n        return counter;\r\n    }\r\n\r\n}",
  "sourcePath": "D:\\New_Desktop\\codeOnDemand\\defi-staking-app-starter\\src\\contracts\\newVoting.sol",
  "compiler": {
    "name": "solc",
    "version": "0.5.17+commit.d19bba13.Emscripten.clang"
  },
  "schemaVersion": "3.4.13",
  "updatedAt": "2023-04-16T09:18:51.712Z",
  "devdoc": {
    "methods": {}
  },
  "userdoc": {
    "methods": {}
  }
}