{
  "contractName": "voteKaro",
  "abi": [
    {
      "constant": true,
      "inputs": [],
      "name": "counter",
      "outputs": [
        {
          "internalType": "uint256",
          "name": "",
          "type": "uint256"
        }
      ],
      "payable": false,
      "stateMutability": "view",
      "type": "function"
    },
    {
      "constant": true,
      "inputs": [],
      "name": "person",
      "outputs": [
        {
          "internalType": "bool",
          "name": "",
          "type": "bool"
        }
      ],
      "payable": false,
      "stateMutability": "view",
      "type": "function"
    },
    {
      "constant": false,
      "inputs": [],
      "name": "Vote",
      "outputs": [],
      "payable": false,
      "stateMutability": "nonpayable",
      "type": "function"
    }
  ],
  "bytecode": "0x608060405260008060006101000a81548160ff021916908315150217905550600060015534801561002f57600080fd5b506101068061003f6000396000f3fe6080604052348015600f57600080fd5b5060043610603c5760003560e01c806361bc221a1460415780636bf52ffa14605d57806377ec2b55146065575b600080fd5b60476085565b6040518082815260200191505060405180910390f35b6063608b565b005b606b60bf565b604051808215151515815260200191505060405180910390f35b60015481565b6000809054906101000a900460ff16600015158115151460aa57600080fd5b60016000815480929190600101919050555050565b6000809054906101000a900460ff168156fea265627a7a72315820a0ce168bf1c3bee57b08d99d81b583d28346a07802cef1ef3494c1151d1e920264736f6c63430005110032",
  "source": "// SPDX-License-Identifier: MIT\r\n\r\npragma solidity > 0.5.0;\r\n\r\ncontract voteKaro{\r\n    //address private owner\r\n    bool public person = false;\r\n    uint public counter = 0;\r\n\r\n    modifier canVote(bool person) {\r\n        require(person == false);\r\n        _;\r\n    }\r\n    function Vote() public canVote(person) {\r\n        counter++;\r\n    }\r\n\r\n}",
  "sourcePath": "D:\\New_Desktop\\codeOnDemand\\defi-staking-app-starter\\src\\contracts\\typo.sol",
  "compiler": {
    "name": "solc",
    "version": "0.5.17+commit.d19bba13.Emscripten.clang"
  },
  "schemaVersion": "3.4.13",
  "updatedAt": "2023-04-16T09:18:51.720Z",
  "devdoc": {
    "methods": {}
  },
  "userdoc": {
    "methods": {}
  }
}