{
  "contractName": "voting",
  "abi": [
    {
      "inputs": [],
      "payable": false,
      "stateMutability": "nonpayable",
      "type": "constructor"
    },
    {
      "constant": true,
      "inputs": [],
      "name": "a",
      "outputs": [
        {
          "internalType": "uint256",
          "name": "",
          "type": "uint256"
        }
      ],
      "payable": false,
      "stateMutability": "view",
      "type": "function"
    },
    {
      "constant": true,
      "inputs": [],
      "name": "b",
      "outputs": [
        {
          "internalType": "uint256",
          "name": "",
          "type": "uint256"
        }
      ],
      "payable": false,
      "stateMutability": "view",
      "type": "function"
    },
    {
      "constant": true,
      "inputs": [],
      "name": "c",
      "outputs": [
        {
          "internalType": "uint256",
          "name": "",
          "type": "uint256"
        }
      ],
      "payable": false,
      "stateMutability": "view",
      "type": "function"
    },
    {
      "constant": false,
      "inputs": [],
      "name": "voteA",
      "outputs": [],
      "payable": false,
      "stateMutability": "nonpayable",
      "type": "function"
    },
    {
      "constant": false,
      "inputs": [],
      "name": "voteB",
      "outputs": [],
      "payable": false,
      "stateMutability": "nonpayable",
      "type": "function"
    },
    {
      "constant": false,
      "inputs": [],
      "name": "voteC",
      "outputs": [],
      "payable": false,
      "stateMutability": "nonpayable",
      "type": "function"
    },
    {
      "constant": true,
      "inputs": [],
      "name": "winner",
      "outputs": [
        {
          "internalType": "string",
          "name": "",
          "type": "string"
        }
      ],
      "payable": false,
      "stateMutability": "view",
      "type": "function"
    }
  ],
  "bytecode": "0x608060405234801561001057600080fd5b5060008081905550600060018190555060006002819055506104a3806100376000396000f3fe608060405234801561001057600080fd5b506004361061007d5760003560e01c80639dcee1601161005b5780639dcee160146100c8578063c3da42b8146100d2578063dfbf53ae146100f0578063fb32aedb146101735761007d565b80630dbe671f146100825780634df7e3d0146100a057806355416e06146100be575b600080fd5b61008a61017d565b6040518082815260200191505060405180910390f35b6100a8610183565b6040518082815260200191505060405180910390f35b6100c6610189565b005b6100d061019c565b005b6100da6101b0565b6040518082815260200191505060405180910390f35b6100f86101b6565b6040518080602001828103825283818151815260200191508051906020019080838360005b8381101561013857808201518184015260208101905061011d565b50505050905090810190601f1680156101655780820380516001836020036101000a031916815260200191505b509250505060405180910390f35b61017b61045a565b005b60005481565b60015481565b6000808154809291906001019190505550565b600260008154809291906001019190505550565b60025481565b6060600080541480156101cb57506000600154145b80156101d957506000600254145b1561021b576040518060400160405280601581526020017f766f74696e67206973206e6f74207374617274656400000000000000000000008152509050610457565b6001546000541180156102315750600254600054115b15610273576040518060400160405280600681526020017f612077696e7300000000000000000000000000000000000000000000000000008152509050610457565b6001546002541180156102895750600054600254115b156102cb576040518060400160405280600681526020017f632077696e7300000000000000000000000000000000000000000000000000008152509050610457565b6000546001541180156102e15750600254600154115b15610323576040518060400160405280600681526020017f622077696e7300000000000000000000000000000000000000000000000000008152509050610457565b600154600054141561036c576040518060400160405280600d81526020017f4120616e642042206472617773000000000000000000000000000000000000008152509050610457565b60025460015414156103b5576040518060400160405280600d81526020017f4220616e642043206472617773000000000000000000000000000000000000008152509050610457565b60025460005414156103fe576040518060400160405280600d81526020017f4120616e642043206472617773000000000000000000000000000000000000008152509050610457565b6001546000541480156104145750600254600154145b15610456576040518060400160405280600d81526020017f6e6f2070617274792077696e73000000000000000000000000000000000000008152509050610457565b5b90565b60016000815480929190600101919050555056fea265627a7a72315820979a68883ce24ae6231ceab5b503f3cb48f17d8ed4b4a4c915bc33af8a66a99e64736f6c63430005110032",
  "source": "pragma solidity > 0.5.0;\r\n\r\ncontract voting{\r\n    uint public a;\r\n    uint public b;\r\n    uint public c;\r\n\r\n    constructor() public {\r\n        a=0;\r\n        b=0;    \r\n        c=0;\r\n    }\r\n    \r\n    \r\n    function voteA() public{\r\n        a++;\r\n    }\r\n    function voteB() public{\r\n        b++;\r\n    }\r\n    function voteC() public{\r\n        c++;\r\n    }\r\n    function winner() view public returns(string memory){\r\n\r\n        if(a==0 && b==0 && c==0){\r\n            return 'voting is not started';\r\n        }\r\n        if(a>b&&a>c){\r\n            return 'a wins';\r\n        }\r\n        if(c>b&&c>a){\r\n               return 'c wins';\r\n        }\r\n        if(b>a&&b>c){\r\n            return 'b wins';\r\n        }\r\n          else{\r\n           if(a==b){\r\n               return 'A and B draws';\r\n           }\r\n           if(b==c){\r\n               return 'B and C draws';\r\n           }\r\n           if(a==c){\r\n               return 'A and C draws';\r\n           }\r\n          if(a==b && b==c){\r\n              return 'no party wins';\r\n          }\r\n       }\r\n    }\r\n}",
  "sourcePath": "D:\\New_Desktop\\codeOnDemand\\defi-staking-app-starter\\src\\contracts\\improvedVoting.sol",
  "compiler": {
    "name": "solc",
    "version": "0.5.17+commit.d19bba13.Emscripten.clang"
  },
  "schemaVersion": "3.4.13",
  "updatedAt": "2023-04-16T09:18:51.704Z",
  "devdoc": {
    "methods": {}
  },
  "userdoc": {
    "methods": {}
  }
}